:060000000A128A11122809
:10000800FE00030883120313A1000408A2000A08D3
:10001800A3007F08A4000A128A11A0290A128A11D3
:100028003A2B00308A000408840A820700344634D8
:10003800453452345234213400344F344534523428
:100048005234213400344F344B342E3400342334AA
:10005800203400340A128A1188220A128A112030A8
:1000680083120313A5004E30A6000A128A115D22DE
:100078000A128A11803083120313B20032088606EE
:10008800BF30B200320888057F30B20032088805D8
:1000980028300A128A1127230A128A1101300A12FB
:1000A8008A1105220A128A110F300A128A110522B2
:1000B8000A128A1180300A128A1105220A128A113C
:1000C8008312031388170D300A128A11B2220A12FA
:1000D8008A117F3083120313B20032088805C030BA
:1000E8000A128A1105220A128A1183120313881729
:1000F80011300A128A11B2220A128A118C288C280D
:10010800103083120313B200B20B882864008C28C5
:100118008312031305189128922884289328031022
:10012800003003180130B6001030B200B20B9A2824
:100138006400003083120313B4000030B5003508A2
:10014800803AFF0080307F02031DAC280E30340255
:10015800031CAF28B028B228662966290310831229
:10016800031305180314B60D0C30B3009B30B2000E
:10017800B20BBC28B30BBC28013083120313B4079D
:100188000318B50A0030B5073508803AFF008030FB
:100198007F02031DD1280E303402031CD428D52831
:1001A800B2286629662931300A128A1105220A12F4
:1001B8008A11972932300A128A1105220A128A11E5
:1001C800972933300A128A1105220A128A119729AF
:1001D80034300A128A1105220A128A1197293530F9
:1001E8000A128A1105220A128A11972936300A1230
:1001F8008A1105220A128A11972937300A128A11A0
:1002080005220A128A11972938300A128A11052202
:100218000A128A11972939300A128A1105220A12FC
:100228008A11972930300A128A1105220A128A1176
:1002380097297F3083120313B200320888050130F2
:100248000A128A1105220A128A11831203138817C7
:1002580097297F30B2003208880518300A128A11AF
:1002680005220A128A1183120313881797297F30EF
:10027800B200320888051C300A128A1105220A12B7
:100288008A1183120313881797297F30B200320826
:1002980088050C300A128A1105220A128A11831263
:1002A8000313881797297F30B200320888050F306A
:1002B8000A128A1105220A128A1183120313881757
:1002C80097299729831203133608093A03194929EC
:1002D800033A03190829063A03190F29023A0319A0
:1002E80001291E3A03193B29013A03191D29033A2A
:1002F8000319DE28063A0319E528023A0319D72814
:100308000E3A03192D29323A03191629183A0319F6
:10031800F328063A0319FA28023A0319EC280F3A87
:1003280003195729972983120313360899008C2833
:100338008C280A128A1112288C1EA329A429FA29AA
:10034800181DA729A829B22901300A128A110223E7
:100358000A128A11831203131811FA29981CB52955
:10036800B629EF2907300A128A1102230A128A11C4
:10037800831203139810FA29EF297F30A000200870
:10038800880501300A128A1131220A128A11803036
:100398000A128A1131220A128A118312031388174A
:1003A800FA297F30A00020088805C0300A128A1177
:1003B80031220A128A11831203138817FA291A089C
:1003C8000A128A1131220A128A11831203131A0897
:1003D8009900FA29FA291A080D3A0319D529723A07
:1003E8000319C129E329FA29FA29FA292408FF005F
:1003F80023088A002208840021088300FE0E7E0E4E
:10040800090083120313AD002D08F0398600881601
:100418006430A5000030A6000A128A115D220A1273
:100428008A118312031388122D08AC0003300310BD
:10043800AC0DFF3E031D1B2A03102C0D86008816E9
:100448006430A5000030A6000A128A115D220A1243
:100458008A118312031388120800F8007808F0390B
:1004680083120313860088166430F0000030F10010
:100478000A128A11DB220A128A11831203138812C4
:100488007808F70003300310F70DFF3E031D472AD5
:100498000310770D860088166430F0000030F100F4
:1004A8000A128A11DB220A128A1183120313881294
:1004B8000800003083120313AA000030AB006D2A35
:1004C800013083120313AA070318AB0A0030AB07E5
:1004D8006D2A2608A8002508A7000230FF0003108F
:1004E800A70DA80DFF0B732A2B08803AA90028082E
:1004F800803A2902031D822A27082A02031C852A1A
:10050800862A642A872A0800FF3083160313850089
:1005180006309F008601C0308700880183120313CC
:100528008501860187018801831603131815813018
:10053800990018128312031398178B170B17831639
:1005480003138C160C128312031318138316031348
:10055800181398168312031318160800831203132E
:10056800AF000310003003180130B100C22A300870
:100578000A128A1105220A128A11C22A00010138B8
:1005880083120313B1070001FF3831072F078400D6
:100598000A128A1115200A128A11AE002E08B0001C
:1005A800B008031DD82AD92ABB2ADA2A0800003045
:1005B800F5000030F600E72A0130F5070318F60ABF
:1005C8000030F607E72A7108F3007008F2000230DD
:1005D800FF000310F20DF30DFF0BED2A7608803AA9
:1005E800F4007308803A7402031DFC2A720875022D
:1005F800031CFF2A002BE02A012B0800FA00031035
:10060800003003180130FC00102B7B080A128A11F5
:1006180031220A128A11102B00010138FC0700014F
:10062800FF387C077A0784000A128A1115200A12FB
:100638008A11F9007908FB00FB08031D242B252BE0
:10064800092B262B080083120313AC002C08860004
:1006580088166430A5000030A6000A128A115D22AF
:100668000A128A11831203138812080083010A12DE
:040678008A112E288D
:02400E007A3FF7
:00000001FF
